{
  "_format": "hh-sol-artifact-1",
  "contractName": "MintTicket",
  "sourceName": "contracts/MintTicket.sol",
  "abi": [
    {
      "inputs": [],
      "stateMutability": "nonpayable",
      "type": "constructor"
    },
    {
      "anonymous": false,
      "inputs": [
        {
          "indexed": true,
          "internalType": "address",
          "name": "owner",
          "type": "address"
        },
        {
          "indexed": true,
          "internalType": "address",
          "name": "approved",
          "type": "address"
        },
        {
          "indexed": true,
          "internalType": "uint256",
          "name": "tokenId",
          "type": "uint256"
        }
      ],
      "name": "Approval",
      "type": "event"
    },
    {
      "anonymous": false,
      "inputs": [
        {
          "indexed": true,
          "internalType": "address",
          "name": "owner",
          "type": "address"
        },
        {
          "indexed": true,
          "internalType": "address",
          "name": "operator",
          "type": "address"
        },
        {
          "indexed": false,
          "internalType": "bool",
          "name": "approved",
          "type": "bool"
        }
      ],
      "name": "ApprovalForAll",
      "type": "event"
    },
    {
      "anonymous": false,
      "inputs": [
        {
          "indexed": true,
          "internalType": "address",
          "name": "from",
          "type": "address"
        },
        {
          "indexed": true,
          "internalType": "address",
          "name": "to",
          "type": "address"
        },
        {
          "indexed": true,
          "internalType": "uint256",
          "name": "tokenId",
          "type": "uint256"
        }
      ],
      "name": "Transfer",
      "type": "event"
    },
    {
      "inputs": [
        {
          "internalType": "address",
          "name": "to",
          "type": "address"
        },
        {
          "internalType": "uint256",
          "name": "tokenId",
          "type": "uint256"
        }
      ],
      "name": "approve",
      "outputs": [],
      "stateMutability": "nonpayable",
      "type": "function"
    },
    {
      "inputs": [
        {
          "internalType": "address",
          "name": "owner",
          "type": "address"
        }
      ],
      "name": "balanceOf",
      "outputs": [
        {
          "internalType": "uint256",
          "name": "",
          "type": "uint256"
        }
      ],
      "stateMutability": "view",
      "type": "function"
    },
    {
      "inputs": [
        {
          "internalType": "uint256",
          "name": "tokenId",
          "type": "uint256"
        }
      ],
      "name": "getApproved",
      "outputs": [
        {
          "internalType": "address",
          "name": "",
          "type": "address"
        }
      ],
      "stateMutability": "view",
      "type": "function"
    },
    {
      "inputs": [
        {
          "internalType": "address",
          "name": "owner",
          "type": "address"
        },
        {
          "internalType": "address",
          "name": "operator",
          "type": "address"
        }
      ],
      "name": "isApprovedForAll",
      "outputs": [
        {
          "internalType": "bool",
          "name": "",
          "type": "bool"
        }
      ],
      "stateMutability": "view",
      "type": "function"
    },
    {
      "inputs": [],
      "name": "mintTicket",
      "outputs": [],
      "stateMutability": "nonpayable",
      "type": "function"
    },
    {
      "inputs": [],
      "name": "name",
      "outputs": [
        {
          "internalType": "string",
          "name": "",
          "type": "string"
        }
      ],
      "stateMutability": "view",
      "type": "function"
    },
    {
      "inputs": [
        {
          "internalType": "uint256",
          "name": "tokenId",
          "type": "uint256"
        }
      ],
      "name": "ownerOf",
      "outputs": [
        {
          "internalType": "address",
          "name": "",
          "type": "address"
        }
      ],
      "stateMutability": "view",
      "type": "function"
    },
    {
      "inputs": [
        {
          "internalType": "address",
          "name": "from",
          "type": "address"
        },
        {
          "internalType": "address",
          "name": "to",
          "type": "address"
        },
        {
          "internalType": "uint256",
          "name": "tokenId",
          "type": "uint256"
        }
      ],
      "name": "safeTransferFrom",
      "outputs": [],
      "stateMutability": "nonpayable",
      "type": "function"
    },
    {
      "inputs": [
        {
          "internalType": "address",
          "name": "from",
          "type": "address"
        },
        {
          "internalType": "address",
          "name": "to",
          "type": "address"
        },
        {
          "internalType": "uint256",
          "name": "tokenId",
          "type": "uint256"
        },
        {
          "internalType": "bytes",
          "name": "_data",
          "type": "bytes"
        }
      ],
      "name": "safeTransferFrom",
      "outputs": [],
      "stateMutability": "nonpayable",
      "type": "function"
    },
    {
      "inputs": [
        {
          "internalType": "address",
          "name": "operator",
          "type": "address"
        },
        {
          "internalType": "bool",
          "name": "approved",
          "type": "bool"
        }
      ],
      "name": "setApprovalForAll",
      "outputs": [],
      "stateMutability": "nonpayable",
      "type": "function"
    },
    {
      "inputs": [
        {
          "internalType": "bytes4",
          "name": "interfaceId",
          "type": "bytes4"
        }
      ],
      "name": "supportsInterface",
      "outputs": [
        {
          "internalType": "bool",
          "name": "",
          "type": "bool"
        }
      ],
      "stateMutability": "view",
      "type": "function"
    },
    {
      "inputs": [],
      "name": "symbol",
      "outputs": [
        {
          "internalType": "string",
          "name": "",
          "type": "string"
        }
      ],
      "stateMutability": "view",
      "type": "function"
    },
    {
      "inputs": [
        {
          "internalType": "uint256",
          "name": "",
          "type": "uint256"
        }
      ],
      "name": "ticketTypes",
      "outputs": [
        {
          "internalType": "uint256",
          "name": "",
          "type": "uint256"
        }
      ],
      "stateMutability": "view",
      "type": "function"
    },
    {
      "inputs": [
        {
          "internalType": "uint256",
          "name": "index",
          "type": "uint256"
        }
      ],
      "name": "tokenByIndex",
      "outputs": [
        {
          "internalType": "uint256",
          "name": "",
          "type": "uint256"
        }
      ],
      "stateMutability": "view",
      "type": "function"
    },
    {
      "inputs": [
        {
          "internalType": "address",
          "name": "owner",
          "type": "address"
        },
        {
          "internalType": "uint256",
          "name": "index",
          "type": "uint256"
        }
      ],
      "name": "tokenOfOwnerByIndex",
      "outputs": [
        {
          "internalType": "uint256",
          "name": "",
          "type": "uint256"
        }
      ],
      "stateMutability": "view",
      "type": "function"
    },
    {
      "inputs": [
        {
          "internalType": "uint256",
          "name": "tokenId",
          "type": "uint256"
        }
      ],
      "name": "tokenURI",
      "outputs": [
        {
          "internalType": "string",
          "name": "",
          "type": "string"
        }
      ],
      "stateMutability": "view",
      "type": "function"
    },
    {
      "inputs": [],
      "name": "totalSupply",
      "outputs": [
        {
          "internalType": "uint256",
          "name": "",
          "type": "uint256"
        }
      ],
      "stateMutability": "view",
      "type": "function"
    },
    {
      "inputs": [
        {
          "internalType": "address",
          "name": "from",
          "type": "address"
        },
        {
          "internalType": "address",
          "name": "to",
          "type": "address"
        },
        {
          "internalType": "uint256",
          "name": "tokenId",
          "type": "uint256"
        }
      ],
      "name": "transferFrom",
      "outputs": [],
      "stateMutability": "nonpayable",
      "type": "function"
    }
  ],
  "bytecode": "0x60806040523480156200001157600080fd5b506040518060400160405280600681526020017f7469636b657400000000000000000000000000000000000000000000000000008152506040518060400160405280600281526020017f5443000000000000000000000000000000000000000000000000000000000000815250816000908051906020019062000096929190620000b8565b508060019080519060200190620000af929190620000b8565b505050620001cd565b828054620000c69062000168565b90600052602060002090601f016020900481019282620000ea576000855562000136565b82601f106200010557805160ff191683800117855562000136565b8280016001018555821562000136579182015b828111156200013557825182559160200191906001019062000118565b5b50905062000145919062000149565b5090565b5b80821115620001645760008160009055506001016200014a565b5090565b600060028204905060018216806200018157607f821691505b602082108114156200019857620001976200019e565b5b50919050565b7f4e487b7100000000000000000000000000000000000000000000000000000000600052602260045260246000fd5b61303180620001dd6000396000f3fe608060405234801561001057600080fd5b50600436106101165760003560e01c8063573c80fa116100a2578063a22cb46511610071578063a22cb465146102f3578063b88d4fde1461030f578063c87b56dd1461032b578063e985e9c51461035b578063e9dbebce1461038b57610116565b8063573c80fa1461026b5780636352211e1461027557806370a08231146102a557806395d89b41146102d557610116565b806318160ddd116100e957806318160ddd146101b557806323b872dd146101d35780632f745c59146101ef57806342842e0e1461021f5780634f6ccce71461023b57610116565b806301ffc9a71461011b57806306fdde031461014b578063081812fc14610169578063095ea7b314610199575b600080fd5b61013560048036038101906101309190612069565b6103bb565b60405161014291906124da565b60405180910390f35b610153610435565b60405161016091906124f5565b60405180910390f35b610183600480360381019061017e91906120bb565b6104c7565b6040516101909190612473565b60405180910390f35b6101b360048036038101906101ae919061202d565b61054c565b005b6101bd610664565b6040516101ca9190612717565b60405180910390f35b6101ed60048036038101906101e89190611f27565b610671565b005b6102096004803603810190610204919061202d565b6106d1565b6040516102169190612717565b60405180910390f35b61023960048036038101906102349190611f27565b610776565b005b610255600480360381019061025091906120bb565b610796565b6040516102629190612717565b60405180910390f35b61027361082d565b005b61028f600480360381019061028a91906120bb565b6108b5565b60405161029c9190612473565b60405180910390f35b6102bf60048036038101906102ba9190611ec2565b610967565b6040516102cc9190612717565b60405180910390f35b6102dd610a1f565b6040516102ea91906124f5565b60405180910390f35b61030d60048036038101906103089190611ff1565b610ab1565b005b61032960048036038101906103249190611f76565b610ac7565b005b610345600480360381019061034091906120bb565b610b29565b60405161035291906124f5565b60405180910390f35b61037560048036038101906103709190611eeb565b610bd0565b60405161038291906124da565b60405180910390f35b6103a560048036038101906103a091906120bb565b610c64565b6040516103b29190612717565b60405180910390f35b60007f780e9d63000000000000000000000000000000000000000000000000000000007bffffffffffffffffffffffffffffffffffffffffffffffffffffffff1916827bffffffffffffffffffffffffffffffffffffffffffffffffffffffff1916148061042e575061042d82610c7c565b5b9050919050565b6060600080546104449061293c565b80601f01602080910402602001604051908101604052809291908181526020018280546104709061293c565b80156104bd5780601f10610492576101008083540402835291602001916104bd565b820191906000526020600020905b8154815290600101906020018083116104a057829003601f168201915b5050505050905090565b60006104d282610d5e565b610511576040517f08c379a000000000000000000000000000000000000000000000000000000000815260040161050890612677565b60405180910390fd5b6004600083815260200190815260200160002060009054906101000a900473ffffffffffffffffffffffffffffffffffffffff169050919050565b6000610557826108b5565b90508073ffffffffffffffffffffffffffffffffffffffff168373ffffffffffffffffffffffffffffffffffffffff1614156105c8576040517f08c379a00000000000000000000000000000000000000000000000000000000081526004016105bf906126b7565b60405180910390fd5b8073ffffffffffffffffffffffffffffffffffffffff166105e7610dca565b73ffffffffffffffffffffffffffffffffffffffff161480610616575061061581610610610dca565b610bd0565b5b610655576040517f08c379a000000000000000000000000000000000000000000000000000000000815260040161064c906125f7565b60405180910390fd5b61065f8383610dd2565b505050565b6000600880549050905090565b61068261067c610dca565b82610e8b565b6106c1576040517f08c379a00000000000000000000000000000000000000000000000000000000081526004016106b8906126d7565b60405180910390fd5b6106cc838383610f69565b505050565b60006106dc83610967565b821061071d576040517f08c379a000000000000000000000000000000000000000000000000000000000815260040161071490612517565b60405180910390fd5b600660008473ffffffffffffffffffffffffffffffffffffffff1673ffffffffffffffffffffffffffffffffffffffff168152602001908152602001600020600083815260200190815260200160002054905092915050565b61079183838360405180602001604052806000815250610ac7565b505050565b60006107a0610664565b82106107e1576040517f08c379a00000000000000000000000000000000000000000000000000000000081526004016107d8906126f7565b60405180910390fd5b6008828154811061081b577f4e487b7100000000000000000000000000000000000000000000000000000000600052603260045260246000fd5b90600052602060002001549050919050565b60006001610839610664565b61084391906127cb565b905060006001600542338560405160200161086093929190612436565b6040516020818303038152906040528051906020012060001c6108839190612a16565b61088d91906127cb565b905080600a6000848152602001908152602001600020819055506108b133836111d0565b5050565b6000806002600084815260200190815260200160002060009054906101000a900473ffffffffffffffffffffffffffffffffffffffff169050600073ffffffffffffffffffffffffffffffffffffffff168173ffffffffffffffffffffffffffffffffffffffff16141561095e576040517f08c379a000000000000000000000000000000000000000000000000000000000815260040161095590612637565b60405180910390fd5b80915050919050565b60008073ffffffffffffffffffffffffffffffffffffffff168273ffffffffffffffffffffffffffffffffffffffff1614156109d8576040517f08c379a00000000000000000000000000000000000000000000000000000000081526004016109cf90612617565b60405180910390fd5b600360008373ffffffffffffffffffffffffffffffffffffffff1673ffffffffffffffffffffffffffffffffffffffff168152602001908152602001600020549050919050565b606060018054610a2e9061293c565b80601f0160208091040260200160405190810160405280929190818152602001828054610a5a9061293c565b8015610aa75780601f10610a7c57610100808354040283529160200191610aa7565b820191906000526020600020905b815481529060010190602001808311610a8a57829003601f168201915b5050505050905090565b610ac3610abc610dca565b83836113aa565b5050565b610ad8610ad2610dca565b83610e8b565b610b17576040517f08c379a0000000000000000000000000000000000000000000000000000000008152600401610b0e906126d7565b60405180910390fd5b610b2384848484611517565b50505050565b6060610b3482610d5e565b610b73576040517f08c379a0000000000000000000000000000000000000000000000000000000008152600401610b6a90612697565b60405180910390fd5b6000610b7d611573565b90506000815111610b9d5760405180602001604052806000815250610bc8565b80610ba78461158a565b604051602001610bb8929190612412565b6040516020818303038152906040525b915050919050565b6000600560008473ffffffffffffffffffffffffffffffffffffffff1673ffffffffffffffffffffffffffffffffffffffff16815260200190815260200160002060008373ffffffffffffffffffffffffffffffffffffffff1673ffffffffffffffffffffffffffffffffffffffff16815260200190815260200160002060009054906101000a900460ff16905092915050565b600a6020528060005260406000206000915090505481565b60007f80ac58cd000000000000000000000000000000000000000000000000000000007bffffffffffffffffffffffffffffffffffffffffffffffffffffffff1916827bffffffffffffffffffffffffffffffffffffffffffffffffffffffff19161480610d4757507f5b5e139f000000000000000000000000000000000000000000000000000000007bffffffffffffffffffffffffffffffffffffffffffffffffffffffff1916827bffffffffffffffffffffffffffffffffffffffffffffffffffffffff1916145b80610d575750610d5682611737565b5b9050919050565b60008073ffffffffffffffffffffffffffffffffffffffff166002600084815260200190815260200160002060009054906101000a900473ffffffffffffffffffffffffffffffffffffffff1673ffffffffffffffffffffffffffffffffffffffff1614159050919050565b600033905090565b816004600083815260200190815260200160002060006101000a81548173ffffffffffffffffffffffffffffffffffffffff021916908373ffffffffffffffffffffffffffffffffffffffff160217905550808273ffffffffffffffffffffffffffffffffffffffff16610e45836108b5565b73ffffffffffffffffffffffffffffffffffffffff167f8c5be1e5ebec7d5bd14f71427d1e84f3dd0314c0f7b2291e5b200ac8c7c3b92560405160405180910390a45050565b6000610e9682610d5e565b610ed5576040517f08c379a0000000000000000000000000000000000000000000000000000000008152600401610ecc906125d7565b60405180910390fd5b6000610ee0836108b5565b90508073ffffffffffffffffffffffffffffffffffffffff168473ffffffffffffffffffffffffffffffffffffffff161480610f4f57508373ffffffffffffffffffffffffffffffffffffffff16610f37846104c7565b73ffffffffffffffffffffffffffffffffffffffff16145b80610f605750610f5f8185610bd0565b5b91505092915050565b8273ffffffffffffffffffffffffffffffffffffffff16610f89826108b5565b73ffffffffffffffffffffffffffffffffffffffff1614610fdf576040517f08c379a0000000000000000000000000000000000000000000000000000000008152600401610fd690612557565b60405180910390fd5b600073ffffffffffffffffffffffffffffffffffffffff168273ffffffffffffffffffffffffffffffffffffffff16141561104f576040517f08c379a000000000000000000000000000000000000000000000000000000000815260040161104690612597565b60405180910390fd5b61105a8383836117a1565b611065600082610dd2565b6001600360008573ffffffffffffffffffffffffffffffffffffffff1673ffffffffffffffffffffffffffffffffffffffff16815260200190815260200160002060008282546110b59190612852565b925050819055506001600360008473ffffffffffffffffffffffffffffffffffffffff1673ffffffffffffffffffffffffffffffffffffffff168152602001908152602001600020600082825461110c91906127cb565b92505081905550816002600083815260200190815260200160002060006101000a81548173ffffffffffffffffffffffffffffffffffffffff021916908373ffffffffffffffffffffffffffffffffffffffff160217905550808273ffffffffffffffffffffffffffffffffffffffff168473ffffffffffffffffffffffffffffffffffffffff167fddf252ad1be2c89b69c2b068fc378daa952ba7f163c4a11628f55a4df523b3ef60405160405180910390a46111cb8383836118b5565b505050565b600073ffffffffffffffffffffffffffffffffffffffff168273ffffffffffffffffffffffffffffffffffffffff161415611240576040517f08c379a000000000000000000000000000000000000000000000000000000000815260040161123790612657565b60405180910390fd5b61124981610d5e565b15611289576040517f08c379a000000000000000000000000000000000000000000000000000000000815260040161128090612577565b60405180910390fd5b611295600083836117a1565b6001600360008473ffffffffffffffffffffffffffffffffffffffff1673ffffffffffffffffffffffffffffffffffffffff16815260200190815260200160002060008282546112e591906127cb565b92505081905550816002600083815260200190815260200160002060006101000a81548173ffffffffffffffffffffffffffffffffffffffff021916908373ffffffffffffffffffffffffffffffffffffffff160217905550808273ffffffffffffffffffffffffffffffffffffffff16600073ffffffffffffffffffffffffffffffffffffffff167fddf252ad1be2c89b69c2b068fc378daa952ba7f163c4a11628f55a4df523b3ef60405160405180910390a46113a6600083836118b5565b5050565b8173ffffffffffffffffffffffffffffffffffffffff168373ffffffffffffffffffffffffffffffffffffffff161415611419576040517f08c379a0000000000000000000000000000000000000000000000000000000008152600401611410906125b7565b60405180910390fd5b80600560008573ffffffffffffffffffffffffffffffffffffffff1673ffffffffffffffffffffffffffffffffffffffff16815260200190815260200160002060008473ffffffffffffffffffffffffffffffffffffffff1673ffffffffffffffffffffffffffffffffffffffff16815260200190815260200160002060006101000a81548160ff0219169083151502179055508173ffffffffffffffffffffffffffffffffffffffff168373ffffffffffffffffffffffffffffffffffffffff167f17307eab39ab6107e8899845ad3d59bd9653f200f220920489ca2b5937696c318360405161150a91906124da565b60405180910390a3505050565b611522848484610f69565b61152e848484846118ba565b61156d576040517f08c379a000000000000000000000000000000000000000000000000000000000815260040161156490612537565b60405180910390fd5b50505050565b606060405180602001604052806000815250905090565b606060008214156115d2576040518060400160405280600181526020017f30000000000000000000000000000000000000000000000000000000000000008152509050611732565b600082905060005b600082146116045780806115ed9061299f565b915050600a826115fd9190612821565b91506115da565b60008167ffffffffffffffff811115611646577f4e487b7100000000000000000000000000000000000000000000000000000000600052604160045260246000fd5b6040519080825280601f01601f1916602001820160405280156116785781602001600182028036833780820191505090505b5090505b6000851461172b576001826116919190612852565b9150600a856116a09190612a16565b60306116ac91906127cb565b60f81b8183815181106116e8577f4e487b7100000000000000000000000000000000000000000000000000000000600052603260045260246000fd5b60200101907effffffffffffffffffffffffffffffffffffffffffffffffffffffffffffff1916908160001a905350600a856117249190612821565b945061167c565b8093505050505b919050565b60007f01ffc9a7000000000000000000000000000000000000000000000000000000007bffffffffffffffffffffffffffffffffffffffffffffffffffffffff1916827bffffffffffffffffffffffffffffffffffffffffffffffffffffffff1916149050919050565b6117ac838383611a51565b600073ffffffffffffffffffffffffffffffffffffffff168373ffffffffffffffffffffffffffffffffffffffff1614156117ef576117ea81611a56565b61182e565b8173ffffffffffffffffffffffffffffffffffffffff168373ffffffffffffffffffffffffffffffffffffffff161461182d5761182c8382611a9f565b5b5b600073ffffffffffffffffffffffffffffffffffffffff168273ffffffffffffffffffffffffffffffffffffffff1614156118715761186c81611c0c565b6118b0565b8273ffffffffffffffffffffffffffffffffffffffff168273ffffffffffffffffffffffffffffffffffffffff16146118af576118ae8282611d4f565b5b5b505050565b505050565b60006118db8473ffffffffffffffffffffffffffffffffffffffff16611dce565b15611a44578373ffffffffffffffffffffffffffffffffffffffff1663150b7a02611904610dca565b8786866040518563ffffffff1660e01b8152600401611926949392919061248e565b602060405180830381600087803b15801561194057600080fd5b505af192505050801561197157506040513d601f19601f8201168201806040525081019061196e9190612092565b60015b6119f4573d80600081146119a1576040519150601f19603f3d011682016040523d82523d6000602084013e6119a6565b606091505b506000815114156119ec576040517f08c379a00000000000000000000000000000000000000000000000000000000081526004016119e390612537565b60405180910390fd5b805181602001fd5b63150b7a0260e01b7bffffffffffffffffffffffffffffffffffffffffffffffffffffffff1916817bffffffffffffffffffffffffffffffffffffffffffffffffffffffff191614915050611a49565b600190505b949350505050565b505050565b6008805490506009600083815260200190815260200160002081905550600881908060018154018082558091505060019003906000526020600020016000909190919091505550565b60006001611aac84610967565b611ab69190612852565b9050600060076000848152602001908152602001600020549050818114611b9b576000600660008673ffffffffffffffffffffffffffffffffffffffff1673ffffffffffffffffffffffffffffffffffffffff168152602001908152602001600020600084815260200190815260200160002054905080600660008773ffffffffffffffffffffffffffffffffffffffff1673ffffffffffffffffffffffffffffffffffffffff168152602001908152602001600020600084815260200190815260200160002081905550816007600083815260200190815260200160002081905550505b6007600084815260200190815260200160002060009055600660008573ffffffffffffffffffffffffffffffffffffffff1673ffffffffffffffffffffffffffffffffffffffff16815260200190815260200160002060008381526020019081526020016000206000905550505050565b60006001600880549050611c209190612852565b9050600060096000848152602001908152602001600020549050600060088381548110611c76577f4e487b7100000000000000000000000000000000000000000000000000000000600052603260045260246000fd5b906000526020600020015490508060088381548110611cbe577f4e487b7100000000000000000000000000000000000000000000000000000000600052603260045260246000fd5b906000526020600020018190555081600960008381526020019081526020016000208190555060096000858152602001908152602001600020600090556008805480611d33577f4e487b7100000000000000000000000000000000000000000000000000000000600052603160045260246000fd5b6001900381819060005260206000200160009055905550505050565b6000611d5a83610967565b905081600660008573ffffffffffffffffffffffffffffffffffffffff1673ffffffffffffffffffffffffffffffffffffffff168152602001908152602001600020600083815260200190815260200160002081905550806007600084815260200190815260200160002081905550505050565b6000808273ffffffffffffffffffffffffffffffffffffffff163b119050919050565b6000611e04611dff84612757565b612732565b905082815260208101848484011115611e1c57600080fd5b611e278482856128fa565b509392505050565b600081359050611e3e81612f9f565b92915050565b600081359050611e5381612fb6565b92915050565b600081359050611e6881612fcd565b92915050565b600081519050611e7d81612fcd565b92915050565b600082601f830112611e9457600080fd5b8135611ea4848260208601611df1565b91505092915050565b600081359050611ebc81612fe4565b92915050565b600060208284031215611ed457600080fd5b6000611ee284828501611e2f565b91505092915050565b60008060408385031215611efe57600080fd5b6000611f0c85828601611e2f565b9250506020611f1d85828601611e2f565b9150509250929050565b600080600060608486031215611f3c57600080fd5b6000611f4a86828701611e2f565b9350506020611f5b86828701611e2f565b9250506040611f6c86828701611ead565b9150509250925092565b60008060008060808587031215611f8c57600080fd5b6000611f9a87828801611e2f565b9450506020611fab87828801611e2f565b9350506040611fbc87828801611ead565b925050606085013567ffffffffffffffff811115611fd957600080fd5b611fe587828801611e83565b91505092959194509250565b6000806040838503121561200457600080fd5b600061201285828601611e2f565b925050602061202385828601611e44565b9150509250929050565b6000806040838503121561204057600080fd5b600061204e85828601611e2f565b925050602061205f85828601611ead565b9150509250929050565b60006020828403121561207b57600080fd5b600061208984828501611e59565b91505092915050565b6000602082840312156120a457600080fd5b60006120b284828501611e6e565b91505092915050565b6000602082840312156120cd57600080fd5b60006120db84828501611ead565b91505092915050565b6120ed81612886565b82525050565b6121046120ff82612886565b6129e8565b82525050565b61211381612898565b82525050565b600061212482612788565b61212e818561279e565b935061213e818560208601612909565b61214781612b03565b840191505092915050565b600061215d82612793565b61216781856127af565b9350612177818560208601612909565b61218081612b03565b840191505092915050565b600061219682612793565b6121a081856127c0565b93506121b0818560208601612909565b80840191505092915050565b60006121c9602b836127af565b91506121d482612b21565b604082019050919050565b60006121ec6032836127af565b91506121f782612b70565b604082019050919050565b600061220f6025836127af565b915061221a82612bbf565b604082019050919050565b6000612232601c836127af565b915061223d82612c0e565b602082019050919050565b60006122556024836127af565b915061226082612c37565b604082019050919050565b60006122786019836127af565b915061228382612c86565b602082019050919050565b600061229b602c836127af565b91506122a682612caf565b604082019050919050565b60006122be6038836127af565b91506122c982612cfe565b604082019050919050565b60006122e1602a836127af565b91506122ec82612d4d565b604082019050919050565b60006123046029836127af565b915061230f82612d9c565b604082019050919050565b60006123276020836127af565b915061233282612deb565b602082019050919050565b600061234a602c836127af565b915061235582612e14565b604082019050919050565b600061236d602f836127af565b915061237882612e63565b604082019050919050565b60006123906021836127af565b915061239b82612eb2565b604082019050919050565b60006123b36031836127af565b91506123be82612f01565b604082019050919050565b60006123d6602c836127af565b91506123e182612f50565b604082019050919050565b6123f5816128f0565b82525050565b61240c612407826128f0565b612a0c565b82525050565b600061241e828561218b565b915061242a828461218b565b91508190509392505050565b600061244282866123fb565b60208201915061245282856120f3565b60148201915061246282846123fb565b602082019150819050949350505050565b600060208201905061248860008301846120e4565b92915050565b60006080820190506124a360008301876120e4565b6124b060208301866120e4565b6124bd60408301856123ec565b81810360608301526124cf8184612119565b905095945050505050565b60006020820190506124ef600083018461210a565b92915050565b6000602082019050818103600083015261250f8184612152565b905092915050565b60006020820190508181036000830152612530816121bc565b9050919050565b60006020820190508181036000830152612550816121df565b9050919050565b6000602082019050818103600083015261257081612202565b9050919050565b6000602082019050818103600083015261259081612225565b9050919050565b600060208201905081810360008301526125b081612248565b9050919050565b600060208201905081810360008301526125d08161226b565b9050919050565b600060208201905081810360008301526125f08161228e565b9050919050565b60006020820190508181036000830152612610816122b1565b9050919050565b60006020820190508181036000830152612630816122d4565b9050919050565b60006020820190508181036000830152612650816122f7565b9050919050565b600060208201905081810360008301526126708161231a565b9050919050565b600060208201905081810360008301526126908161233d565b9050919050565b600060208201905081810360008301526126b081612360565b9050919050565b600060208201905081810360008301526126d081612383565b9050919050565b600060208201905081810360008301526126f0816123a6565b9050919050565b60006020820190508181036000830152612710816123c9565b9050919050565b600060208201905061272c60008301846123ec565b92915050565b600061273c61274d565b9050612748828261296e565b919050565b6000604051905090565b600067ffffffffffffffff82111561277257612771612ad4565b5b61277b82612b03565b9050602081019050919050565b600081519050919050565b600081519050919050565b600082825260208201905092915050565b600082825260208201905092915050565b600081905092915050565b60006127d6826128f0565b91506127e1836128f0565b9250827fffffffffffffffffffffffffffffffffffffffffffffffffffffffffffffffff0382111561281657612815612a47565b5b828201905092915050565b600061282c826128f0565b9150612837836128f0565b92508261284757612846612a76565b5b828204905092915050565b600061285d826128f0565b9150612868836128f0565b92508282101561287b5761287a612a47565b5b828203905092915050565b6000612891826128d0565b9050919050565b60008115159050919050565b60007fffffffff0000000000000000000000000000000000000000000000000000000082169050919050565b600073ffffffffffffffffffffffffffffffffffffffff82169050919050565b6000819050919050565b82818337600083830152505050565b60005b8381101561292757808201518184015260208101905061290c565b83811115612936576000848401525b50505050565b6000600282049050600182168061295457607f821691505b6020821081141561296857612967612aa5565b5b50919050565b61297782612b03565b810181811067ffffffffffffffff8211171561299657612995612ad4565b5b80604052505050565b60006129aa826128f0565b91507fffffffffffffffffffffffffffffffffffffffffffffffffffffffffffffffff8214156129dd576129dc612a47565b5b600182019050919050565b60006129f3826129fa565b9050919050565b6000612a0582612b14565b9050919050565b6000819050919050565b6000612a21826128f0565b9150612a2c836128f0565b925082612a3c57612a3b612a76565b5b828206905092915050565b7f4e487b7100000000000000000000000000000000000000000000000000000000600052601160045260246000fd5b7f4e487b7100000000000000000000000000000000000000000000000000000000600052601260045260246000fd5b7f4e487b7100000000000000000000000000000000000000000000000000000000600052602260045260246000fd5b7f4e487b7100000000000000000000000000000000000000000000000000000000600052604160045260246000fd5b6000601f19601f8301169050919050565b60008160601b9050919050565b7f455243373231456e756d657261626c653a206f776e657220696e646578206f7560008201527f74206f6620626f756e6473000000000000000000000000000000000000000000602082015250565b7f4552433732313a207472616e7366657220746f206e6f6e20455243373231526560008201527f63656976657220696d706c656d656e7465720000000000000000000000000000602082015250565b7f4552433732313a207472616e736665722066726f6d20696e636f72726563742060008201527f6f776e6572000000000000000000000000000000000000000000000000000000602082015250565b7f4552433732313a20746f6b656e20616c7265616479206d696e74656400000000600082015250565b7f4552433732313a207472616e7366657220746f20746865207a65726f2061646460008201527f7265737300000000000000000000000000000000000000000000000000000000602082015250565b7f4552433732313a20617070726f766520746f2063616c6c657200000000000000600082015250565b7f4552433732313a206f70657261746f7220717565727920666f72206e6f6e657860008201527f697374656e7420746f6b656e0000000000000000000000000000000000000000602082015250565b7f4552433732313a20617070726f76652063616c6c6572206973206e6f74206f7760008201527f6e6572206e6f7220617070726f76656420666f7220616c6c0000000000000000602082015250565b7f4552433732313a2062616c616e636520717565727920666f7220746865207a6560008201527f726f206164647265737300000000000000000000000000000000000000000000602082015250565b7f4552433732313a206f776e657220717565727920666f72206e6f6e657869737460008201527f656e7420746f6b656e0000000000000000000000000000000000000000000000602082015250565b7f4552433732313a206d696e7420746f20746865207a65726f2061646472657373600082015250565b7f4552433732313a20617070726f76656420717565727920666f72206e6f6e657860008201527f697374656e7420746f6b656e0000000000000000000000000000000000000000602082015250565b7f4552433732314d657461646174613a2055524920717565727920666f72206e6f60008201527f6e6578697374656e7420746f6b656e0000000000000000000000000000000000602082015250565b7f4552433732313a20617070726f76616c20746f2063757272656e74206f776e6560008201527f7200000000000000000000000000000000000000000000000000000000000000602082015250565b7f4552433732313a207472616e736665722063616c6c6572206973206e6f74206f60008201527f776e6572206e6f7220617070726f766564000000000000000000000000000000602082015250565b7f455243373231456e756d657261626c653a20676c6f62616c20696e646578206f60008201527f7574206f6620626f756e64730000000000000000000000000000000000000000602082015250565b612fa881612886565b8114612fb357600080fd5b50565b612fbf81612898565b8114612fca57600080fd5b50565b612fd6816128a4565b8114612fe157600080fd5b50565b612fed816128f0565b8114612ff857600080fd5b5056fea26469706673582212203c20067a6790efc88b1b47699ae37f203bfc7a95e1a994f1e6fcb568bdd7f41364736f6c63430008030033",
  "linkReferences": {},
  "deployedLinkReferences": {}
}